tcpdump -vnn -i eth0 -S -X -c 5 'src 192.137.43.211' and 'dst 128.46.75.105'

tcpdump: listening on eth0, link-type EN10MB (Ethernet), capture size 65535 bytes

09:42:48.812107 IP (tos 0x0, ttl 64, id 1, offset 0, flags [none], proto TCP (6), length 40)
    192.137.43.211.14488 > 128.46.75.105.80: Flags [S], cksum 0x9f06 (correct), seq 0, win 8192, length 0
	0x0000:  4500 0028 0001 0000 4006 c2db c089 2bd3  E..(....@.....+.
	0x0010:  802e 4b69 3898 0050 0000 0000 0000 0000  ..Ki8..P........
	0x0020:  5002 2000 9f06 0000                      P.......
09:42:48.817479 IP (tos 0x0, ttl 64, id 1, offset 0, flags [none], proto TCP (6), length 40)
    192.137.43.211.46739 > 128.46.75.105.80: Flags [S], cksum 0x210b (correct), seq 0, win 8192, length 0
	0x0000:  4500 0028 0001 0000 4006 c2db c089 2bd3  E..(....@.....+.
	0x0010:  802e 4b69 b693 0050 0000 0000 0000 0000  ..Ki...P........
	0x0020:  5002 2000 210b 0000                      P...!...
09:42:48.822450 IP (tos 0x0, ttl 64, id 1, offset 0, flags [none], proto TCP (6), length 40)
    192.137.43.211.54722 > 128.46.75.105.80: Flags [S], cksum 0x01dc (correct), seq 0, win 8192, length 0
	0x0000:  4500 0028 0001 0000 4006 c2db c089 2bd3  E..(....@.....+.
	0x0010:  802e 4b69 d5c2 0050 0000 0000 0000 0000  ..Ki...P........
	0x0020:  5002 2000 01dc 0000                      P.......
09:42:48.828775 IP (tos 0x0, ttl 64, id 1, offset 0, flags [none], proto TCP (6), length 40)
    192.137.43.211.50335 > 128.46.75.105.80: Flags [S], cksum 0x12ff (correct), seq 0, win 8192, length 0
	0x0000:  4500 0028 0001 0000 4006 c2db c089 2bd3  E..(....@.....+.
	0x0010:  802e 4b69 c49f 0050 0000 0000 0000 0000  ..Ki...P........
	0x0020:  5002 2000 12ff 0000                      P.......
09:42:48.833498 IP (tos 0x0, ttl 64, id 1, offset 0, flags [none], proto TCP (6), length 40)
    192.137.43.211.34196 > 128.46.75.105.80: Flags [S], cksum 0x520a (correct), seq 0, win 8192, length 0
	0x0000:  4500 0028 0001 0000 4006 c2db c089 2bd3  E..(....@.....+.
	0x0010:  802e 4b69 8594 0050 0000 0000 0000 0000  ..Ki...P........
	0x0020:  5002 2000 520a 0000                      P...R...
5 packets captured
5 packets received by filter
0 packets dropped by kernel

